:100000000C942A000C9447000C9447000C94470071
:100010000C946B010C9447000C9447000C9447001F
:100020000C9447000C9447000C9447000C94470034
:100030000C9447000C949D010C94C7010C9447004C
:100040000C9447000C9447000C9447000C94470014
:100050000C94470011241FBECFE5D8E0DEBFCDBF12
:1000600011E0A0E6B0E0E8E3FEE102C005900D92E9
:10007000AC36B107D9F712E0ACE6B1E001C01D9291
:10008000A834B107E1F70E9449000C941A0F0C94B0
:1000900000001F930E94BF0480E693E06CED72E0C5
:1000A00048E552E00E94D00B84E60E944A0C80E0B2
:1000B00090E00E94FB0B80E090E00E948B0C0E947D
:1000C0008302882349F40E948E02882319F4109237
:1000D0008C010BC081E007C00E948E02882311F4BE
:1000E00082E001C083E080938C010E949A02182F65
:1000F000813039F481E00E9471021092DE01109388
:100100008B010E94A602882339F081E00E946B02D5
:1001100080E293E00E94260B80E00E9459019093B8
:10012000F4018093F30181E00E9459019093FE0154
:100130008093FD0182E00E9459019093F001809329
:10014000EF0187E00E9459019093EC018093EB014D
:100150008091F3019091F40166E470E00E94580AE6
:100160009093EE018093ED018091FD019091FE014D
:1001700066E470E00E94760A9093F2018093F101A8
:100180008091EF019091F00164E670E00E94940A82
:100190009093200280931F0280916C0190916D01D9
:1001A0008436910508F4B8CF10926D0110926C015D
:1001B0008091DD009091DE0001969093DE008093A7
:1001C000DD000E94350380918C018230E1F08330A4
:1001D0002CF4882341F08130A1F50CC08330E1F08C
:1001E000893079F522C080E00E947D0280E00E9483
:1001F00077022EC080E00E947D0281E00E9477029B
:100200000E94640B25C081E00E947D0280E00E9474
:1002100077020E94560A1CC081E00E947D0281E0A4
:100220000E9477020E94570A13C084E60E94D602F9
:1002300084E660E00E94E80280E090E00E948B0C7F
:1002400007C08EE10E94D6028EE161E00E94E802C2
:100250000E9400038091DE018E3154F080E090E036
:100260000E94FB0B80E090E00E948B0C10928C01AE
:100270008091DD009091DE00885E9D4F08F44CCFA8
:100280001092DE001092DD0047CF1DBC1CBC87EE33
:100290009BE197BD86BD8FB5806A8FBD8EB58261AB
:1002A0008EBD08951ABA1BBA80EC87B985E886B965
:1002B000089597B18770987F892B87B980E0369A27
:1002C0003699FECF24B135B18F5F8430C1F724B1A8
:1002D00035B1C90108951F920F920FB60F921124E4
:1002E0008F939F9380916C0190916D0101969093F3
:1002F0006D0180936C019F918F910F900FBE0F90B5
:100300001F90189514BC86E683BD85B58A6185BDAE
:1003100089B7806889BF08951DBC1CBC909160009E
:100320008091610087BD96BD1BBC1ABC8FB5806FE4
:100330008FBD8EB581618EBD08951F920F920FB64D
:100340000F9211242F938F939F93EF93FF939BB161
:100350002CB1E091D101EF5FEF718091D201E817EC
:1003600011F482E008C0892F8871E093D101F0E098
:10037000E155FE4F20838093D301FF91EF919F9130
:100380008F912F910F900FBE0F901F9018951F9275
:100390000F920FB60F9211248F939F93EF93FF93B9
:1003A0009091CF018091D001981761F0E091D00138
:1003B000EF5FEF71E093D001F0E0E157FE4F8081F5
:1003C0008CB901C05598FF91EF919F918F910F903B
:1003D0000FBE0F901F9018951092CF011092D00170
:1003E0001092D1011092D20197FF02C082E08BB926
:1003F00010BC83E389B988E98AB986E880BD08958D
:100400009091D1018091D201981719F420E031E048
:1004100012C0E091D201EF5FEF71E093D201F0E002
:10042000E155FE4F30812091D301922F80E0AC0145
:10043000430F511D9A01C9010895282F9091CF01B2
:100440009F5F9F718091D0019817E1F3E92FF0E051
:10045000E157FE4F20839093CF01559A0895CF9393
:10046000DF93EC0103C021960E941D02888188233E
:10047000D1F7DF91CF910895CF93DF93EC0102C0C4
:100480000E941D02FE01219684918823C9F7DF9105
:10049000CF91089540E050E060E27EE421E030E05A
:1004A000FB013197F1F72F5F3F4F25363105C1F73B
:1004B0004F5F5F4F481759078CF3089520E030E0F5
:1004C00040ED57E0FA013197F1F72F5F3F4F2817C2
:1004D0003907C4F30895882311F4C1980895C19A87
:1004E0000895882311F4C2980895C29A0895882324
:1004F00011F4AA980895AA9A0895882311F4AB9844
:100500000895AB9A089583B390E080959095807894
:100510009070880F892F881F990B089583B390E0FE
:10052000809590958074907036E0959587953A9572
:10053000E1F7089583B390E0809590958072907074
:1005400045E0959587954A95E1F7089583B390E046
:10055000809590958071907054E0959587955A9507
:10056000E1F70895282F8091DD009091DE00622F41
:1005700070E00E94700D269530E02817390710F4BE
:10058000C19A0895C1980895282F8091DD00909117
:10059000DE00622F70E00E94700D269530E0281773
:1005A000390710F4C29A0895C2980895282F8091AF
:1005B000DD009091DE00622F70E00E94700D2695A4
:1005C00030E02817390710F4AA9A0895AA980895D8
:1005D000282F462F8091DD009091DE00622F70E081
:1005E0000E94700D269530E02817390718F444232F
:1005F00019F404C0442311F4AB980895AB9A0895FC
:100600000E94F00880918701813021F0809189015A
:10061000813011F40E9402078091DD009091DE008C
:1006200064E670E00E94700D892B21F41092710134
:100630001092700120916C0130916D0180917001D8
:10064000909171018217930720F4309371012093E8
:10065000700180916E0190916F018217930720F4D1
:1006600030936F0120936E0108958F929F92AF9205
:10067000BF92CF92DF92FF920F931F93CF93DF939E
:100680002091F3013091F4018091D4019091D50132
:10069000280F391F3093D5012093D401E091FD013B
:1006A000F091FE018091D6019091D701E80FF91FDA
:1006B000F093D701E093D601C090EF01D090F00104
:1006C0008091D8019091D901C80ED91ED092D9013C
:1006D000C092D801AAB4BBB48091DA019091DB0139
:1006E000A80EB91EB092DB01A092DA0188B499B4C9
:1006F0008091DC019091DD01880E991E9092DD01C0
:100700008092DC018091DD009091DE006AE070E073
:100710000E94700DEC01009709F063C0C9016AE006
:1007200070E00E94700D062FF72E60937C0170938D
:100730007D01CF016AE070E00E94700DF62F172F47
:1007400060937E0170937F01C6016AE070E00E94B1
:10075000700D462FE72F6093800170938101C501D2
:100760006AE070E00E94700D9B01609382013093FB
:100770008301C4016AE070E00E94700D60938401FF
:100780007093850100933E02F0923F02F093420283
:100790001093430240933C02E0933D0220933A02BF
:1007A00030933B0260934002709341021092D50156
:1007B0001092D4011092D7011092D6011092D90153
:1007C0001092D8011092DB011092DA011092DD0133
:1007D0001092DC0180918B01813019F482E08093CA
:1007E0008B019091DE019E310CF0BDC080918B0198
:1007F000823008F4B8C0C430D10509F455C0C53002
:10080000D10568F4C130D10561F1C130D105F0F0F6
:10081000C230D10599F1239709F08EC03AC0C73094
:10082000D10509F462C0C830D10540F4C530D10506
:1008300009F445C0269709F07FC04CC0C830D105E7
:1008400009F45EC0299709F077C065C0892F992700
:1008500087FD9095880F991F8050904060913E02CF
:100860000AC0892F992787FD9095880F991F8F5F60
:100870009F4F60913F020E94FD0E5EC0892F992715
:1008800087FD9095880F991F845C9F4F609142026D
:10089000F2CF892F992787FD9095880F991F835C48
:1008A0009F4F60914302E7CF892F992787FD90954D
:1008B000880F991F88589F4F60913C02DCCF892F89
:1008C000992787FD9095880F991F87589F4F6091B2
:1008D0003D02D1CF892F992787FD9095880F991FC9
:1008E0008C549F4F60913A02C6CF892F992787FD7C
:1008F0009095880F991F8B549F4F60913B02BBCFFF
:10090000892F992787FD9095880F991F80519F4FB8
:1009100060914002B0CF892F992787FD9095880F6D
:10092000991F8F509F4F609141020E94FD0E809150
:10093000DE018F5F8093DE018091DE018E3199F4BC
:1009400080916E0190916F01682F80931C029093AB
:100950001D028CE291E00E94FD0E8DE291E060911B
:100960001D020E94FD0EDF91CF911F910F91FF900C
:10097000DF90CF90BF90AF909F908F900895A19AF5
:1009800081B3806781BB0E9445010E94520180E8CB
:1009900095E20E94EC010E94820178948CEB92E037
:1009A00099BD88BD88EF92E09BBD8ABD8DE00E9415
:1009B0001D0283E690E00E942F028DE00E941D023E
:1009C00087B3866087BB84B38C6084BB84B38F702D
:1009D00084BB85B3806F85BB0895481759071CF405
:1009E00020E030E009C090E0641775070CF491E056
:1009F00081E09827292F30E0C9010895FC0120915A
:100A0000E9013091EA018217930711F460E02BC0ED
:100A10004091FA015091FB018417950711F46AE0A7
:100A200022C08091180290911902E817F90711F479
:100A300066EF19C02E173F0754F4821B930B66EF25
:100A40007FEF0E94840DCF01821B930B0AC0C90166
:100A5000841B950B6AE070E00E94840DC9018E1B17
:100A60009F0B0E94840D862F089522E08C3B9207F5
:100A700011F460E012C023E0883E920711F464E6AE
:100A80000CC021E08039920711F46CE906C08C5B40
:100A9000924063E070E00E94840D862F08952F92AB
:100AA0003F924F925F926F927F928F929F92AF92FE
:100AB000BF92CF92DF92EF92FF920F931F93CF934B
:100AC000DF938DE00E941D028FED90E00E942F02C7
:100AD0008FEB90E00E942F0286E790E00E942F02A9
:100AE0008CE291E00E94F50E80931C028DE291E071
:100AF0000E94F50E80931D0280911C0290911D02B0
:100B00006FEF71E04AE050E00E94CC0E8FEF91E071
:100B10000E942F028DE00E941D0280EF90E00E9453
:100B20002F028DE00E941D0220E0A22E20E0B22EB6
:100B300015010894211C311C98E7C92E90E0D92E8C
:100B400026010894411C511C8CE3E82E80E0F82E0D
:100B500037010894611C711C88249924C0E0D0E0FE
:100B60002AC1C4016FEF71E04AE050E00E94CC0E50
:100B70008FEF91E06FEB70E00E94BA0E8FEF91E083
:100B80000E942F0280918801882309F04BC0C50183
:100B90000E94F50E80931C02C1010E94F50E809305
:100BA0001D0280911C0290911D026FEF71E04AE0DE
:100BB00050E00E94CC0E8FEF91E06FEB70E00E944E
:100BC000BA0E8FEF91E00E942F02C6010E94F50E2F
:100BD00080931C02C2010E94F50E80931D02809139
:100BE0001C0290911D026FEF71E04AE050E00E94FC
:100BF000CC0E8FEF91E06FEB70E00E94BA0E8FEF9A
:100C000091E00E942F02C7010E94F50E80931C0202
:100C1000C3010E94F50E80931D0280911C029091E9
:100C20001D0253C0C5010E94F50E80931C02C10134
:100C30000E94F50E80931D0280911C0290911D026E
:100C400066E40E94B20A6FEF71E04AE050E00E9451
:100C5000CC0E8FEF91E06FEB70E00E94BA0E8FEF39
:100C600091E00E942F02C6010E94F50E80931C02A3
:100C7000C2010E94F50E80931D0280911C0290918A
:100C80001D0264E60E94B20A6FEF71E04AE050E094
:100C90000E94CC0E8FEF91E06FEB70E00E94BA0ED5
:100CA0008FEF91E00E942F02C7010E94F50E809302
:100CB0001C02C3010E94F50E80931D0280911C024C
:100CC00090911D0266E40E94B20A6FEF71E04AE063
:100CD00050E00E94CC0E8FEF91E06FEB70E00E942D
:100CE000BA0E8FEF91E00E942F02CE018C549F4FDD
:100CF0000E94F50E80931C028E010F5F1F4FC801EA
:100D00008C549F4F0E94F50E80931D0280911C020F
:100D100090911D020E94FE04992787FD90956FEF28
:100D200071E04AE050E00E94CC0E8FEF91E06FEB53
:100D300070E00E94BA0E8FEF91E00E942F02CE0168
:100D400080519F4F0E94F50E80931C02C801805174
:100D50009F4F0E94F50E80931D0280911C0290917E
:100D60001D020E943505992787FD90956FEF71E070
:100D70004AE050E00E94CC0E8FEF91E06FEB70E004
:100D80000E94BA0E8FEF91E00E942F028DE00E9428
:100D90001D020894811C911C229682E090E0A80E0E
:100DA000B91E280E391EC80ED91E480E591EE80E4F
:100DB000F91E680E791E8091DE01992787FD9095B6
:100DC000881699060CF4CDCE8DE00E941D0210927B
:100DD0006D0110926C0110926F0110926E01DF9103
:100DE000CF911F910F91FF90EF90DF90CF90BF9028
:100DF000AF909F908F907F906F905F904F903F90BB
:100E00002F90089580918901813039F40E944F0517
:100E1000109289011092870108958091DD009091D0
:100E2000DE0068EE73E00E94700D81319105D1F013
:100E30008231910530F48730910561F00997F1F422
:100E40000CC089339105A1F081369105A1F04B9733
:100E5000A9F40BC08BE191E002C080E391E00E9415
:100E60002F020CC088E391E0FACF84E491E0F7CF41
:100E70008AE491E0F4CF8DE00E941D02E091DD0054
:100E8000F091DE00CF016AE070E00E94700D8330C7
:100E9000910579F18430910538F48130910559F04C
:100EA000029709F052C016C08430910589F1059768
:100EB00009F04BC03CC08091720190917301209168
:100EC0007C0130917D01820F931F90937301809379
:100ED00072013BC0809174019091750120917E0157
:100EE00030917F01820F931F90937501809374015D
:100EF0002CC08091760190917701209180013091F2
:100F00008101820F931F90937701809376011DC01A
:100F10008091780190917901209182013091830133
:100F2000820F931F90937901809378010EC0809176
:100F30007A0190917B012091840130918501820F8B
:100F4000931F90937B0180937A01CF0164E670E058
:100F50000E94700D892B09F021C180918A0188239C
:100F600009F41CC1809172019091730165E070E0F9
:100F70000E94700D9B016093720130937301809108
:100F800074019091750165E070E00E94700D70939E
:100F9000750160937401809176019091770165E00D
:100FA00070E00E94700D70937701609376018091DC
:100FB00078019091790165E070E00E94700D709366
:100FC00079016093780180917A0190917B0165E0CD
:100FD00070E00E94700D70937B0160937A018091A4
:100FE00088018130F1F4C90166E40E94B20A90934D
:100FF000730180937201809174019091750166E490
:101000000E94B20A909375018093740180917601D9
:101010009091770164E60E94B20A909377018093E1
:1010200076018091DD009091DE0064E670E00E9420
:10103000700DCB016FEF71E04AE050E00E94CC0EE2
:101040008FEF91E06FEB70E00E94BA0E8FEF91E0AE
:101050000E942F0280917201909173016FEF71E0F5
:101060004AE050E00E94CC0E8FEF91E06FEB70E011
:101070000E94BA0E8FEF91E00E942F0280917601BC
:10108000909177016FEF71E04AE050E00E94CC0E42
:101090008FEF91E06FEB70E00E94BA0E8FEF91E05E
:1010A0000E942F0280917401909175016FEF71E0A1
:1010B0004AE050E00E94CC0E8FEF91E06FEB70E0C1
:1010C0000E94BA0E8FEF91E00E942F02809178016A
:1010D000909179010E94FE04992787FD90956FEF0A
:1010E00071E04AE050E00E94CC0E8FEF91E06FEB90
:1010F00070E00E94BA0E8FEF91E00E942F02809163
:101100007A0190917B010E943505992787FD909582
:101110006FEF71E04AE050E00E94CC0E8FEF91E05B
:101120006FEB70E00E94BA0E8FEF91E00E942F02E9
:101130008091EB019091EC016FEF71E04AE050E09B
:101140000E94CC0E8FEF91E06FEB70E00E94BA0E20
:101150008FEF91E00E942F0280918C01992787FDEB
:1011600090956FEF71E04AE050E00E94CC0E8FEF57
:1011700091E06FEB70E00E94BA0E8FEF91E00E9459
:101180002F028091DD009091DE0064E670E00E9405
:10119000700D892B19F48DE00E941D028091DD00F5
:1011A0009091DE0062E370E00E94700D892BB9F42B
:1011B00010927301109272011092750110927401D5
:1011C00010927701109276011092790110927801B5
:1011D00010927B0110927A0181E080938A01089538
:1011E000CF93DF930E9400029C019093F6018093BD
:1011F000F501982F20931E0281E02030380751F02E
:1012000080918601E82FF0E0EF5DFD4F20838F5F36
:101210008093860180918601893110F010928601B9
:10122000903209F5E0918601E130D9F0F0E0E05E1E
:10123000FD4F10828DE00E941D028DE790E00E941C
:101240002F0280E20E941D0280E20E941D0281E2C4
:1012500092E00E942F0281E090E090938E018093B3
:101260008D011092860180918D0190918E010197E0
:1012700009F019C18FEF8093FC0180916200682F03
:10128000772767FD7095C0E0D0E020E030E04FEFB9
:1012900011C021969C91FE01EF5DFD4F8081981752
:1012A00021F411969923A9F702C0992309F4422F3A
:1012B0002F5F3F4F2617370764F44F3F51F4D90192
:1012C000AA0FBB1FAA0FBB1FA256BF4FC0E0D0E0A2
:1012D000E1CF4093FC018091FC01833009F47FC091
:1012E00084303CF48130B9F08230ECF4882359F03A
:1012F000C5C0853009F48DC085300CF47BC08630C4
:1013000009F0BCC099C0CE018F5D9D4F0E949C0E1C
:101310000E94FB0BC1C0CE018F5D9D4F0E949C0EB1
:101320000E948B0CB9C0809187018130D1F5109259
:10133000870185EC90E00E942F028FEB90E00E94E5
:101340002F028DE690E00E942F020E944D0C6FEF5D
:1013500071E04AE050E00E94CC0E8FEF91E00E94D5
:101360002F028FEB90E00E942F0286E790E00E9410
:101370002F0280916E0190916F016FEF71E04AE052
:1013800050E00E94CC0E8FEF91E00E942F028DE082
:101390000E941D028DE790E00E942F0286E890E0F7
:1013A00079C081E08093870110928A0181EC90E0FE
:1013B0000E942F028FEB90E00E942F0286E790E0C0
:1013C0000E942F0280916E0190916F016FEF71E08A
:1013D0004AE050E00E94CC0E8FEF91E05BC080911C
:1013E0008801813019F4109288010AC081E080934D
:1013F00088010CC080918901813029F41092890103
:1014000085EC90E047C081E08093890181EC90E019
:1014100041C01092860181EC90E00E942F028DE085
:101420000E941D0210926F0110926E011092DE0157
:1014300081E080938B0133C0CF5DDD4F8881805385
:101440008A30C8F480938C0180E00E9471028FEF93
:1014500091E06FEB70E00E94C50E8FEF91E00E946B
:101460002F028AEB90E00E942F0280918C01805D18
:101470000E941D0211C08DE790E008C08FEF91E03F
:101480006FEB70E00E94C50E8FEF91E00E942F027B
:101490008AEC90E00E942F028DE00E941D021092C3
:1014A0008E0110928D01DF91CF91089508950895D6
:1014B0009C01462F8436910510F424E630E08EE638
:1014C00099E5B9010E94700D635E7F4F842F90E013
:1014D0009C01629FC001639F900D729F900D11242B
:1014E00064E670E00E94840DCB0108959C01462FB4
:1014F0008436910510F424E630E086E99EE5B901D2
:101500000E94700D69507040842F90E09C01629F92
:10151000C001639F900D729F900D112464E670E0EE
:101520000E94840DCB0108959C01462F84369105BD
:1015300010F424E630E086E89BE5B9010E94700DC6
:101540006A5F7F4F842F90E09C01629FC001639F80
:10155000900D729F900D112464E670E00E94840D3E
:10156000CB0108959C01462F8436910510F424E6A2
:1015700030E086E89BE5B9010E94700D6A5F7F4FFD
:10158000842F90E09C01629FC001639F900D729F29
:10159000900D112464E670E00E94840DCB01089543
:1015A0002091D3003091D4006091D5007091D60085
:1015B000AC01429FC001439F900D529F900D11249A
:1015C0000E94700D8091D7009091D800680F791F0C
:1015D000CB010895CF93DF930E948302813039F5C8
:1015E000C1E0D0E081E00E946B0281E00E947102C4
:1015F00081E00E94770281E00E947D0284E690E013
:101600000E945E0280E00E946B0280E00E947102F4
:1016100080E00E94770280E00E947D0284E690E0F4
:101620000E945E022196CB30D105E1F60CC080E02D
:101630000E946B0280E00E94710280E00E947702AB
:1016400080E00E947D02DF91CF9108950F931F9358
:101650008C0187E00E9459019093EC018093EB018B
:101660008017910770F581E00E946B0281E00E9473
:10167000710281E00E94770281E00E947D028091E8
:10168000DB009091DC0062E070E00E94840DCB01F1
:101690000E945E0280E00E946B0280E00E94710264
:1016A00080E00E94770280E00E947D028091DB0052
:1016B0009091DC0062E070E00E94840DCB010E94FA
:1016C0005E021F910F91089520911F023091200218
:1016D0002333310520F01092E8011092E701809148
:1016E000F1019091F2019093E2018093E101309336
:1016F000E4012093E3018091ED019091EE0190933C
:10170000E6018093E5012338310558F089E190E046
:101710000E948B0C8091F1019091F2010E94D00AFD
:1017200037C022383105B9F08091E7019091E80186
:10173000892B71F42F31310558F084E190E00E943B
:101740008B0C8091F1019091F2010E94D00A20C08F
:101750002E31310530F08091E7019091E801019739
:10176000F1F481E090E09093E8018093E7018CEE42
:101770009FEF0E948B0C2091E1013091E20180915A
:10178000E5019091E601821793072CF486EF9FEF15
:101790000E94FB0B08958AE090E00E94FB0B0895E5
:1017A00024E08D34920710F08EEE92E090931902AF
:1017B0008093180281E0443F580728F05093FB01C2
:1017C0004093FA0106C08AE892E09093FB0180936F
:1017D000FA01CB01845F91408855924028F47093C0
:1017E000EA016093E90108958CEB92E09093EA019D
:1017F0008093E90108959C01009729F48091E90103
:101800009091EA0134C08A3091052CF08091FA0160
:101810009091FB012CC04FEF873F94072CF48091EF
:1018200018029091190223C0E091E901F091EA01B8
:10183000181619064CF48091FA019091FB01AF0142
:10184000481B590BCA0106C08091180290911902D9
:101850008E1B9F0B66EF7FEF0E94840D629FC0017D
:10186000639F900D729F900D11248E0F9F1F909378
:10187000F6018093F5012091F5013091F601C9013F
:10188000845F91408955924010F0AA9A08953BBD1B
:101890002ABD08958093F7010895DF93CF9300D078
:1018A000CDB7DEB78091440290914502009711F4C4
:1018B00088E492E0880F991F44275527481B590B4D
:1018C0009E012F5F3F4F240F351FC9010F900F90CE
:1018D000CF91DF9108950F931F93182F092F88B58B
:1018E00099B58C5B924080F088E592E099BD88BD07
:1018F00084E690E00E945E028CEB92E099BD88BD88
:1019000084E690E00E945E02812F902F99BD88BDF1
:101910001F910F9108959C0197FD15C08091F701CB
:10192000992787FD90958217930754F0C901880F76
:10193000991F820F931F84549D4F99BD88BD0895B0
:1019400021153105A1F48091F701992787FD909524
:10195000909581959F4F281739074CF0C901880F42
:10196000991F820F931F84549D4F0E946B0C089502
:10197000DF93CF93CDB7DEB768970FB6F894DEBF8D
:101980000FBECDBFDE011A96EEE4F1E08FE00190CC
:101990000D928150E1F7DE011196EDE5F1E089E06D
:1019A00001900D928150E1F70E9400028093F501B1
:1019B0009093F60180931E0280918D0190918E018B
:1019C000892BF9F4CE010A960E942F028AB59BB5A5
:1019D0006FEF71E04AE050E00E94CC0E8FEF91E093
:1019E0006FEB70E00E94BA0E8FEF91E00E942F0221
:1019F0008DE00E941D0281E090E090938E01809323
:101A00008D0180911E028B3221F08D3209F05FC072
:101A100012C08AB59BB5855F914030F08AB59BB501
:101A200004979BBD8ABD07C08DE00E941D02CE01B8
:101A300001960E942F0280911E028D3291F48AB588
:101A40009BB58C54944030F48AB59BB504969BBDED
:101A50008ABD07C08DE00E941D02CE0101960E9442
:101A60002F02CE010A960E942F028AB59BB56FEF16
:101A700071E04AE050E00E94CC0E8FEF91E06FEBF6
:101A800070E00E94BA0E8FEF91E00E942F028DE06D
:101A90000E941D028FEB90E00E942F028DE690E0E5
:101AA0000E942F020E944D0C6FEF71E04AE050E05F
:101AB0000E94CC0E8FEF91E06FEB70E00E94BA0EA7
:101AC0008FEF91E00E942F028DE00E941D02689628
:101AD0000FB6F894DEBF0FBECDBFCF91DF91089552
:101AE000AA1BBB1B51E107C0AA1FBB1FA617B70744
:101AF00010F0A61BB70B881F991F5A95A9F7809560
:101B00009095BC01CD01089597FB092E07260AD0B8
:101B100077FD04D0E5DF06D000201AF470956195BA
:101B20007F4F0895F6F7909581959F4F0895CF9335
:101B3000DF93BC018230910510F462E070E0A09167
:101B40004602B0914702ED01E0E0F0E040E050E0F5
:101B500021C0888199818617970769F48A819B81C2
:101B6000309719F09383828304C090934702809347
:101B70004602FE0134C06817790738F44115510553
:101B800019F08417950708F4AC01FE018A819B8146
:101B90009C01E9012097E9F641155105A9F1CA0117
:101BA000861B970B049708F4BA01E0E0F0E02AC026
:101BB0008D919C91119784179507F9F46417750717
:101BC00081F412968D919C911397309719F093831D
:101BD000828304C09093470280934602FD013296AF
:101BE0004FC0CA01861B970BFD01E80FF91F6193D7
:101BF000719302978D939C9343C0FD0182819381E1
:101C00009C01D9011097A1F6809144029091450260
:101C1000892B41F48091680190916901909345026C
:101C20008093440240916A0150916B014115510526
:101C300041F44DB75EB78091660190916701481BF2
:101C4000590B209144023091450224173507B0F416
:101C5000CA01821B930B8617970780F0AB014E5F7A
:101C60005F4F8417950750F0420F531F5093450262
:101C700040934402F9016193719302C0E0E0F0E007
:101C8000CF01DF91CF910895CF93DF93009709F4AF
:101C900050C0EC0122971B821A82A0914602B0919B
:101CA0004702109709F140E050E0AC17BD0708F17A
:101CB000BB83AA83FE0121913191E20FF31FAE177E
:101CC000BF0779F48D919C911197280F391F2E5FD2
:101CD0003F4F3983288312968D919C9113979B8354
:101CE0008A834115510571F4D0934702C09346028F
:101CF00020C012968D919C911397AD01009711F021
:101D0000DC01D3CFFA01D383C28321913191E20F59
:101D1000F31FCE17DF0769F488819981280F391FD7
:101D20002E5F3F4FFA01318320838A819B81938309
:101D30008283DF91CF910895FC0188279927E89449
:101D400021912032E9F3293010F02E30C8F32B32E4
:101D500041F02D3239F4689404C00E94ED0E820FD8
:101D6000911D219120532A30C0F31EF49095819546
:101D70009F4F0895FB01DC010D900020E9F71197BA
:101D800001900D920020E1F70895FB01DC01019024
:101D90000D920020E1F70895FB019F01E894423085
:101DA000C4F04532B4F44A3029F497FB1EF4909500
:101DB00081959F4F642F77270E94700D805D8A3335
:101DC0000CF0895D8193CB010097A1F716F45DE2D9
:101DD00051931082C9010C940A0F7AE0979F902DBD
:101DE000879F802D910D11240895E199FECF9FBB0F
:101DF0008EBBE09A99278DB30895262FE199FECFE7
:101E00009FBB8EBB2DBB0FB6F894E29AE19A0FBE32
:101E100001960895DC01FC01672F71917723E1F7AA
:101E2000329704C07C916D9370836291AE17BF07A7
:081E3000C8F30895F894FFCFF8
:101E3800D0070743432056312E33312000667265A0
:101E48006552414D3D00417A4D61783D004B6F6DC3
:101E58006D616E646F00733A09732C662C6C6F6742
:101E68002C636D2C68612C68732C6D6D0D007300EC
:101E78000000660000006C6F6700636D0000686119
:101E88000000687300006D6D00004D6F643D00092F
:101E98000009616E000961757300756E67FC6C74EA
:101EA8006967000A001E00F4FF1E00C80001004810
:101EB8006973746F7279617573676162653A20003E
:101EC8000D7420696E20302C3173096C696E6B7348
:101ED80009766F726E650972656368747309536574
:101EE80072766F0946616872720D000D7420696E12
:101EF8002073096C696E6B7309766F726E650900E1
:101F08007265636874730900536572766F09466178
:101F180068720900416B6B7509004D6F6400536569
:101F280072766F20282B2F2D29203A20004D6178BA
:0C1F380057657274200020004802000071
:00000001FF
