:100000000C942A000C9447000C9447000C94470071
:100010000C946B010C9447000C9447000C9447001F
:100020000C9447000C9447000C9447000C94470034
:100030000C9447000C949D010C94C7010C9447004C
:100040000C9447000C9447000C9447000C94470014
:100050000C94470011241FBECFE5D8E0DEBFCDBF12
:1000600011E0A0E6B0E0EEE7FEE102C005900D92DF
:10007000AA36B107D9F712E0AAE6B1E001C01D9295
:10008000A834B107E1F70E9449000C943D0F0C948D
:1000900000001F930E94BF0480E693E06CED72E0C5
:1000A00048E552E00E94F30B84E60E946D0C80E06C
:1000B00090E00E941E0C80E090E00E94AE0C0E9436
:1000C0008302882349F40E948E02882319F4109237
:1000D0008A010BC081E007C00E948E02882311F4C0
:1000E00082E001C083E080938A010E949A02182F67
:1000F000813039F481E00E9471021092DC0110938A
:1001000089010E94A602882339F081E00E946B02D7
:1001100080E293E00E945D0B80E00E945901909381
:10012000F4018093F30181E00E9459019093FE0154
:100130008093FD0182E00E9459019093F001809329
:10014000EF0187E00E9459019093EC018093EB014D
:100150008091F3019091F40166E470E00E94580AE6
:100160009093EE018093ED018091FD019091FE014D
:1001700066E470E00E94760A9093F2018093F101A8
:100180008091EF019091F00164E670E00E94940A82
:100190009093200280931F0280916A0190916B01DD
:1001A0008436910508F4B8CF10926B0110926A0161
:1001B0008091DB009091DC0001969093DC008093AD
:1001C000DB000E94350380918A018230E1F08330A8
:1001D0002CF4882341F08130A1F50CC08330E1F08C
:1001E000893079F522C080E00E947D0280E00E9483
:1001F00077022EC080E00E947D0281E00E9477029B
:100200000E949B0B25C081E00E947D0280E00E943D
:1002100077020E94560A1CC081E00E947D0281E0A4
:100220000E9477020E94570A13C084E60E94D602F9
:1002300084E660E00E94E80280E090E00E94AE0C5C
:1002400007C08EE10E94D6028EE161E00E94E802C2
:100250000E9400038091DC018E3154F080E090E038
:100260000E941E0C80E090E00E94AE0C10928A0169
:100270008091DB009091DC00885E9D4F08F44CCFAC
:100280001092DC001092DB0047CF1DBC1CBC87EE37
:100290009BE197BD86BD8FB5806A8FBD8EB58261AB
:1002A0008EBD08951ABA1BBA80EC87B985E886B965
:1002B000089597B18770987F892B87B980E0369A27
:1002C0003699FECF24B135B18F5F8430C1F724B1A8
:1002D00035B1C90108951F920F920FB60F921124E4
:1002E0008F939F9380916A0190916B0101969093F7
:1002F0006B0180936A019F918F910F900FBE0F90B9
:100300001F90189514BC86E683BD85B58A6185BDAE
:1003100089B7806889BF08951DBC1CBC909160009E
:100320008091610087BD96BD1BBC1ABC8FB5806FE4
:100330008FBD8EB581618EBD08951F920F920FB64D
:100340000F9211242F938F939F93EF93FF939BB161
:100350002CB1E091CF01EF5FEF718091D001E817F0
:1003600011F482E008C0892F8871E093CF01F0E09A
:10037000E355FE4F20838093D101FF91EF919F9130
:100380008F912F910F900FBE0F901F9018951F9275
:100390000F920FB60F9211248F939F93EF93FF93B9
:1003A0009091CD018091CE01981761F0E091CE013E
:1003B000EF5FEF71E093CE01F0E0E357FE4F8081F5
:1003C0008CB901C05598FF91EF919F918F910F903B
:1003D0000FBE0F901F9018951092CD011092CE0174
:1003E0001092CF011092D00197FF02C082E08BB92A
:1003F00010BC83E389B988E98AB986E880BD08958D
:100400009091CF018091D001981719F420E031E04C
:1004100012C0E091D001EF5FEF71E093D001F0E006
:10042000E355FE4F30812091D101922F80E0AC0145
:10043000430F511D9A01C9010895282F9091CD01B4
:100440009F5F9F718091CE019817E1F3E92FF0E053
:10045000E357FE4F20839093CD01559A0895CF9393
:10046000DF93EC0103C021960E941D02888188233E
:10047000D1F7DF91CF910895CF93DF93EC0102C0C4
:100480000E941D02FE01219684918823C9F7DF9105
:10049000CF91089540E050E060E27EE421E030E05A
:1004A000FB013197F1F72F5F3F4F25363105C1F73B
:1004B0004F5F5F4F481759078CF3089520E030E0F5
:1004C00040ED57E0FA013197F1F72F5F3F4F2817C2
:1004D0003907C4F30895882311F4C1980895C19A87
:1004E0000895882311F4C2980895C29A0895882324
:1004F00011F4AA980895AA9A0895882311F4AB9844
:100500000895AB9A089583B390E080959095807894
:100510009070880F892F881F990B089583B390E0FE
:10052000809590958074907036E0959587953A9572
:10053000E1F7089583B390E0809590958072907074
:1005400045E0959587954A95E1F7089583B390E046
:10055000809590958071907054E0959587955A9507
:10056000E1F70895282F8091DB009091DC00622F45
:1005700070E00E94930D269530E02817390710F49B
:10058000C19A0895C1980895282F8091DB00909119
:10059000DC00622F70E00E94930D269530E0281752
:1005A000390710F4C29A0895C2980895282F8091AF
:1005B000DB009091DC00622F70E00E94930D269585
:1005C00030E02817390710F4AA9A0895AA980895D8
:1005D000282F462F8091DB009091DC00622F70E085
:1005E0000E94930D269530E02817390718F444230C
:1005F00019F404C0442311F4AB980895AB9A0895FC
:100600000E94F00880918501813021F0809187015E
:10061000813011F40E9402078091DB009091DC0090
:1006200064E670E00E94930D892B21F410926F0113
:1006300010926E0120916A0130916B0180916E01E0
:1006400090916F018217930720F430936F012093EC
:100650006E0180916C0190916D018217930720F4D7
:1006600030936D0120936C0108958F929F92AF9209
:10067000BF92CF92DF92FF920F931F93CF93DF939E
:100680002091F3013091F4018091D2019091D30136
:10069000280F391F3093D3012093D201E091FD013F
:1006A000F091FE018091D4019091D501E80FF91FDE
:1006B000F093D501E093D401C090EF01D090F00108
:1006C0008091D6019091D701C80ED91ED092D70142
:1006D000C092D601AAB4BBB48091D8019091D9013F
:1006E000A80EB91EB092D901A092D80188B499B4CD
:1006F0008091DA019091DB01880E991E9092DB01C6
:100700008092DA018091DB009091DC006AE070E079
:100710000E94930DEC01009709F063C0C9016AE0E3
:1007200070E00E94930D062FF72E60937A0170936C
:100730007B01CF016AE070E00E94930DF62F172F26
:1007400060937C0170937D01C6016AE070E00E94B5
:10075000930D462FE72F60937E0170937F01C501B3
:100760006AE070E00E94930D9B01609380013093DA
:100770008101C4016AE070E00E94930D60938201E0
:100780007093830100933E02F0923F02F093420285
:100790001093430240933C02E0933D0220933A02BF
:1007A00030933B0260934002709341021092D30158
:1007B0001092D2011092D5011092D4011092D7015B
:1007C0001092D6011092D9011092D8011092DB013B
:1007D0001092DA0180918901813019F482E08093CE
:1007E00089019091DC019E310CF0BDC0809189019E
:1007F000823008F4B8C0C430D10509F455C0C53002
:10080000D10568F4C130D10561F1C130D105F0F0F6
:10081000C230D10599F1239709F08EC03AC0C73094
:10082000D10509F462C0C830D10540F4C530D10506
:1008300009F445C0269709F07FC04CC0C830D105E7
:1008400009F45EC0299709F077C065C0892F992700
:1008500087FD9095880F991F8050904060913E02CF
:100860000AC0892F992787FD9095880F991F8F5F60
:100870009F4F60913F020E94200F5EC0892F9927F1
:1008800087FD9095880F991F845C9F4F609142026D
:10089000F2CF892F992787FD9095880F991F835C48
:1008A0009F4F60914302E7CF892F992787FD90954D
:1008B000880F991F88589F4F60913C02DCCF892F89
:1008C000992787FD9095880F991F87589F4F6091B2
:1008D0003D02D1CF892F992787FD9095880F991FC9
:1008E0008C549F4F60913A02C6CF892F992787FD7C
:1008F0009095880F991F8B549F4F60913B02BBCFFF
:10090000892F992787FD9095880F991F80519F4FB8
:1009100060914002B0CF892F992787FD9095880F6D
:10092000991F8F509F4F609141020E94200F80912C
:10093000DC018F5F8093DC018091DC018E3199F4C2
:1009400080916C0190916D01682F80931C029093AF
:100950001D028CE291E00E94200F8DE291E06091F7
:100960001D020E94200FDF91CF911F910F91FF90E8
:10097000DF90CF90BF90AF909F908F900895A19AF5
:1009800081B3806781BB0E9445010E94520180E8CB
:1009900095E20E94EC010E94820178948CEB92E037
:1009A00099BD88BD88EF92E09BBD8ABD8DE00E9415
:1009B0001D0283E690E00E942F028DE00E941D023E
:1009C00087B3866087BB84B38C6084BB84B38F702D
:1009D00084BB85B3806F85BB0895481759071CF405
:1009E00020E030E009C090E0641775070CF491E056
:1009F00081E09827292F30E0C9010895FC0120915A
:100A0000E9013091EA018217930711F460E02BC0ED
:100A10004091FA015091FB018417950711F46AE0A7
:100A200022C08091180290911902E817F90711F479
:100A300066EF19C02E173F0754F4821B930B66EF25
:100A40007FEF0E94A70DCF01821B930B0AC0C90143
:100A5000841B950B6AE070E00E94A70DC9018E1BF4
:100A60009F0B0E94A70D862F089522E08C3B9207D2
:100A700011F460E012C023E0883E920711F464E6AE
:100A80000CC021E08039920711F46CE906C08C5B40
:100A9000924063E070E00E94A70D862F08952F9288
:100AA0003F924F925F926F927F928F929F92AF92FE
:100AB000BF92CF92DF92EF92FF920F931F93CF934B
:100AC000DF938DE00E941D028DED90E00E942F02C9
:100AD0008FEB90E00E942F0286E790E00E942F02A9
:100AE0008CE291E00E94180F80931C028DE291E04D
:100AF0000E94180F80931D0280911C0290911D028C
:100B00006FEF71E04AE050E00E94EF0E8FEF91E04E
:100B10000E942F028DE00E941D028EEE90E00E9446
:100B20002F028DE00E941D0220E0A22E20E0B22EB6
:100B300015010894211C311C98E7C92E90E0D92E8C
:100B400026010894411C511C8CE3E82E80E0F82E0D
:100B500037010894611C711C88249924C0E0D0E0FE
:100B60002AC1C4016FEF71E04AE050E00E94EF0E2D
:100B70008FEF91E06FEB70E00E94DD0E8FEF91E060
:100B80000E942F0280918601882309F04BC0C50185
:100B90000E94180F80931C02C1010E94180F8093BD
:100BA0001D0280911C0290911D026FEF71E04AE0DE
:100BB00050E00E94EF0E8FEF91E06FEB70E00E942B
:100BC000DD0E8FEF91E00E942F02C6010E94180FE8
:100BD00080931C02C2010E94180F80931D02809115
:100BE0001C0290911D026FEF71E04AE050E00E94FC
:100BF000EF0E8FEF91E06FEB70E00E94DD0E8FEF54
:100C000091E00E942F02C7010E94180F80931C02DE
:100C1000C3010E94180F80931D0280911C029091C5
:100C20001D0253C0C5010E94180F80931C02C10110
:100C30000E94180F80931D0280911C0290911D024A
:100C400066E40E94B20A6FEF71E04AE050E00E9451
:100C5000EF0E8FEF91E06FEB70E00E94DD0E8FEFF3
:100C600091E00E942F02C6010E94180F80931C027F
:100C7000C2010E94180F80931D0280911C02909166
:100C80001D0264E60E94B20A6FEF71E04AE050E094
:100C90000E94EF0E8FEF91E06FEB70E00E94DD0E8F
:100CA0008FEF91E00E942F02C7010E94180F8093DE
:100CB0001C02C3010E94180F80931D0280911C0228
:100CC00090911D0266E40E94B20A6FEF71E04AE063
:100CD00050E00E94EF0E8FEF91E06FEB70E00E940A
:100CE000DD0E8FEF91E00E942F02CE018C549F4FBA
:100CF0000E94180F80931C028E010F5F1F4FC801C6
:100D00008C549F4F0E94180F80931D0280911C02EB
:100D100090911D020E94FE04992787FD90956FEF28
:100D200071E04AE050E00E94EF0E8FEF91E06FEB30
:100D300070E00E94DD0E8FEF91E00E942F02CE0145
:100D400080519F4F0E94180F80931C02C801805150
:100D50009F4F0E94180F80931D0280911C0290915A
:100D60001D020E943505992787FD90956FEF71E070
:100D70004AE050E00E94EF0E8FEF91E06FEB70E0E1
:100D80000E94DD0E8FEF91E00E942F028DE00E9405
:100D90001D020894811C911C229682E090E0A80E0E
:100DA000B91E280E391EC80ED91E480E591EE80E4F
:100DB000F91E680E791E8091DC01992787FD9095B8
:100DC000881699060CF4CDCE8DE00E941D0210927B
:100DD0006B0110926A0110926D0110926C01DF910B
:100DE000CF911F910F91FF90EF90DF90CF90BF9028
:100DF000AF909F908F907F906F905F904F903F90BB
:100E00002F90089580918701813039F40E944F0519
:100E1000109287011092850108958091DB009091D6
:100E2000DC0068EE73E00E94930D81319105D1F0F2
:100E30008231910530F48730910561F00997F1F422
:100E40000CC089339105A1F081369105A1F04B9733
:100E5000A9F40BC089E191E002C08EE291E00E940A
:100E60002F020CC086E391E0FACF82E491E0F7CF45
:100E700088E491E0F4CF8DE00E941D02E091DB0058
:100E8000F091DC00CF016AE070E00E94930D8330A6
:100E9000910579F18430910538F48130910559F04C
:100EA000029709F052C016C08430910589F1059768
:100EB00009F04BC03CC0809170019091710120916C
:100EC0007A0130917B01820F931F9093710180937F
:100ED00070013BC0809172019091730120917C015F
:100EE00030917D01820F931F909373018093720163
:100EF0002CC0809174019091750120917E013091F8
:100F00007F01820F931F90937501809374011DC020
:100F1000809176019091770120918001309181013B
:100F2000820F931F90937701809376010EC080917A
:100F30007801909179012091820130918301820F93
:100F4000931F9093790180937801CF0164E670E05C
:100F50000E94930D892B09F021C18091880188237B
:100F600009F41CC1809170019091710165E070E0FD
:100F70000E94930D9B0160937001309371018091E9
:100F800072019091730165E070E00E94930D70937F
:100F9000730160937201809174019091750165E015
:100FA00070E00E94930D70937501609374018091BD
:100FB00076019091770165E070E00E94930D709347
:100FC000770160937601809178019091790165E0D5
:100FD00070E00E94930D7093790160937801809185
:100FE00086018130F1F4C90166E40E94B20A90934F
:100FF000710180937001809172019091730166E498
:101000000E94B20A909373018093720180917401DF
:101010009091750164E60E94B20A909375018093E5
:1010200074018091DB009091DC0064E670E00E9426
:10103000930DCB016FEF71E04AE050E00E94EF0E9C
:101040008FEF91E06FEB70E00E94DD0E8FEF91E08B
:101050000E942F0280917001909171016FEF71E0F9
:101060004AE050E00E94EF0E8FEF91E06FEB70E0EE
:101070000E94DD0E8FEF91E00E942F02809174019B
:10108000909175016FEF71E04AE050E00E94EF0E21
:101090008FEF91E06FEB70E00E94DD0E8FEF91E03B
:1010A0000E942F0280917201909173016FEF71E0A5
:1010B0004AE050E00E94EF0E8FEF91E06FEB70E09E
:1010C0000E94DD0E8FEF91E00E942F028091760149
:1010D000909177010E94FE04992787FD90956FEF0C
:1010E00071E04AE050E00E94EF0E8FEF91E06FEB6D
:1010F00070E00E94DD0E8FEF91E00E942F02809140
:101100007801909179010E943505992787FD909586
:101110006FEF71E04AE050E00E94EF0E8FEF91E038
:101120006FEB70E00E94DD0E8FEF91E00E942F02C6
:101130008091EB019091EC016FEF71E04AE050E09B
:101140000E94EF0E8FEF91E06FEB70E00E94DD0EDA
:101150008FEF91E00E942F0280918A01992787FDED
:1011600090956FEF71E04AE050E00E94EF0E8FEF34
:1011700091E06FEB70E00E94DD0E8FEF91E00E9436
:101180002F028091DB009091DC0064E670E00E9409
:10119000930D892B19F48DE00E941D028091DB00D4
:1011A0009091DC0062E370E00E94930D892BB9F40A
:1011B00010927101109270011092730110927201DD
:1011C00010927501109274011092770110927601BD
:1011D000109279011092780181E08093880108953E
:1011E000CF93DF930E9400029C019093F6018093BD
:1011F000F501982F20931E0281E02030380751F02E
:1012000080918401E82FF0E0EF5DFD4F20838F5F38
:101210008093840180918401893110F010928401BF
:10122000903209F5E0918401E130D9F0F0E0E05E20
:10123000FD4F10828DE00E941D028DE790E00E941C
:101240002F0280E20E941D0280E20E941D0281E2C4
:1012500092E00E942F0281E090E090938C018093B5
:101260008B011092840180918B0190918C010197E8
:1012700009F019C18FEF8093FC0180916200682F03
:10128000772767FD709520E030E0C0E0D0E04FEFB9
:1012900011C021969C91FE01EF5DFD4F8081981752
:1012A00021F411969923A9F702C0992309F4422F3A
:1012B0002F5F3F4F2617370764F44F3F51F4D90192
:1012C000AA0FBB1FAA0FBB1FA256BF4FC0E0D0E0A2
:1012D000E1CF4093FC018091FC01833009F47FC091
:1012E00084303CF48130B9F08230ECF4882359F03A
:1012F000C5C0853009F48DC085300CF47BC08630C4
:1013000009F0BCC099C0CE018F5D9D4F0E94BF0EF9
:101310000E941E0CC1C0CE018F5D9D4F0E94BF0E6A
:101320000E94AE0CB9C0809185018130D1F5109238
:10133000850185EC90E00E942F028FEB90E00E94E7
:101340002F028DE690E00E942F020E94700C6FEF3A
:1013500071E04AE050E00E94EF0E8FEF91E00E94B2
:101360002F028FEB90E00E942F0286E790E00E9410
:101370002F0280916C0190916D016FEF71E04AE056
:1013800050E00E94EF0E8FEF91E00E942F028DE05F
:101390000E941D028DE790E00E942F0286E890E0F7
:1013A00079C081E0809385011092880181EC90E002
:1013B0000E942F028FEB90E00E942F0286E790E0C0
:1013C0000E942F0280916C0190916D016FEF71E08E
:1013D0004AE050E00E94EF0E8FEF91E05BC08091F9
:1013E0008601813019F4109286010AC081E0809351
:1013F00086010CC080918701813029F41092870109
:1014000085EC90E047C081E08093870181EC90E01B
:1014100041C01092840181EC90E00E942F028DE087
:101420000E941D0210926D0110926C011092DC015D
:1014300081E08093890133C0CF5DDD4F8881805387
:101440008A30C8F480938A0180E00E9471028FEF95
:1014500091E06FEB70E00E94E80E8FEF91E00E9448
:101460002F028AEB90E00E942F0280918A01805D1A
:101470000E941D0211C08DE790E008C08FEF91E03F
:101480006FEB70E00E94E80E8FEF91E00E942F0258
:101490008AEC90E00E942F028DE00E941D021092C3
:1014A0008C0110928B01DF91CF91089508950895DA
:1014B0009C01462F8436910510F424E630E08EE638
:1014C00099E5B9010E94930D635E7F4F842F90E0F0
:1014D0009C01629FC001639F900D729F900D11242B
:1014E00064E670E00E94A70DCB0108959C01462F91
:1014F0008436910510F424E630E086E99EE5B901D2
:101500000E94930D69507040842F90E09C01629F6F
:10151000C001639F900D729F900D112464E670E0EE
:101520000E94A70DCB0108959C01462F843691059A
:1015300010F424E630E086E89BE5B9010E94930DA3
:101540006A5F7F4F842F90E09C01629FC001639F80
:10155000900D729F900D112464E670E00E94A70D1B
:10156000CB0108959C01462F8436910510F424E6A2
:1015700030E086E89BE5B9010E94930D6A5F7F4FDA
:10158000842F90E09C01629FC001639F900D729F29
:10159000900D112464E670E00E94A70DCB01089520
:1015A0009C01FB014338510598F18035910588F481
:1015B0008091D3009091D4006091D5007091D600B5
:1015C000AC01249FC001259F900D349F900D1124E4
:1015D00013C060357105C8F48091D3009091D40098
:1015E0006091D5007091D6009C01E29FC001E39FFD
:1015F000900DF29F900D11240E94930D6351704045
:101600007093E8016093E70117C084E090E010C098
:10161000880F991F880F991F63E070E00E94930D57
:101620006E177F0718F486EF9FEF02C08AE090E004
:101630009093E8018093E7018091E7019091E801A0
:101640000895CF93DF930E948302813039F5C1E082
:10165000D0E081E00E946B0281E00E94710281E093
:101660000E94770281E00E947D0284E690E00E9461
:101670005E0280E00E946B0280E00E94710280E0C6
:101680000E94770280E00E947D0284E690E00E9442
:101690005E022196CB30D105E1F60CC080E00E94BD
:1016A0006B0280E00E94710280E00E94770280E07D
:1016B0000E947D02DF91CF9108950F931F938C01BB
:1016C00087E00E9459019093EC018093EB01801711
:1016D000910770F581E00E946B0281E00E94710227
:1016E00081E00E94770281E00E947D028091D90012
:1016F0009091DA0062E070E00E94A70DCB010E9499
:101700005E0280E00E946B0280E00E94710280E035
:101710000E94770280E00E947D028091D900909122
:10172000DA0062E070E00E94A70DCB010E945E0229
:101730001F910F91089520911F02309120022333B1
:10174000310520F01092E6011092E5018091F1013F
:101750009091F2019093E0018093DF013093E201D8
:101760002093E1018091ED019091EE019093E401CD
:101770008093E3012E31310530F08091E5019091A5
:10178000E6010197D9F481E090E09093E60180931F
:10179000E5018CEE9FEF0E94AE0C2091DF013091AD
:1017A000E0018091E3019091E401821793071CF41A
:1017B00086EF9FEF15C08AE090E012C089E190E0CB
:1017C0000E94AE0C6091ED017091EE0140911F02FC
:1017D000509120028091F1019091F2010E94D00A73
:1017E0000E941E0C089524E08D34920710F08EEEB6
:1017F00092E0909319028093180281E0443F5807C9
:1018000028F05093FB014093FA0106C08AE892E069
:101810009093FB018093FA01CB01845F914088553E
:10182000924028F47093EA016093E90108958CEBEB
:1018300092E09093EA018093E90108959C0100975A
:1018400029F48091E9019091EA0134C08A30910530
:101850002CF08091FA019091FB012CC04FEF873F53
:1018600094072CF4809118029091190223C0E09102
:10187000E901F091EA01181619064CF48091FA0179
:101880009091FB01AF01481B590BCA0106C0809122
:101890001802909119028E1B9F0B66EF7FEF0E943A
:1018A000A70D629FC001639F900D729F900D112440
:1018B0008E0F9F1F9093F6018093F5012091F50103
:1018C0003091F601C901845F91408955924010F032
:1018D000AA9A08953BBD2ABD08958093F701089503
:1018E000DF93CF9300D0CDB7DEB7809144029091C3
:1018F0004502009711F488E492E0880F991F44276D
:101900005527481B590B9E012F5F3F4F240F351F52
:10191000C9010F900F90CF91DF9108950F931F93FE
:10192000182F092F88B599B58C5B924080F088E517
:1019300092E099BD88BD84E690E00E945E028CEB47
:1019400092E099BD88BD84E690E00E945E02812FFE
:10195000902F99BD88BD1F910F9108959C0197FD0F
:1019600015C08091F701992787FD909582179307FD
:1019700054F0C901880F991F820F931F84549D4F03
:1019800099BD88BD089521153105A1F48091F70115
:10199000992787FD9095909581959F4F2817390736
:1019A0004CF0C901880F991F820F931F84549D4FDB
:1019B0000E948E0C0895DF93CF93CDB7DEB7689762
:1019C0000FB6F894DEBF0FBECDBFDE011A96ECE471
:1019D000F1E08FE001900D928150E1F7DE01119668
:1019E000EBE5F1E089E001900D928150E1F70E9472
:1019F00000028093F5019093F60180931E0280917E
:101A00008B0190918C01892BF9F4CE010A960E94EA
:101A10002F028AB59BB56FEF71E04AE050E00E945B
:101A2000EF0E8FEF91E06FEB70E00E94DD0E8FEF15
:101A300091E00E942F028DE00E941D0281E090E063
:101A400090938C0180938B0180911E028B3221F048
:101A50008D3209F05FC012C08AB59BB5855F914099
:101A600030F08AB59BB504979BBD8ABD07C08DE059
:101A70000E941D02CE0101960E942F0280911E023B
:101A80008D3291F48AB59BB58C54944030F48AB56C
:101A90009BB504969BBD8ABD07C08DE00E941D02C8
:101AA000CE0101960E942F02CE010A960E942F02BB
:101AB0008AB59BB56FEF71E04AE050E00E94EF0EEF
:101AC0008FEF91E06FEB70E00E94DD0E8FEF91E001
:101AD0000E942F028DE00E941D028FEB90E00E9479
:101AE0002F028DE690E00E942F020E94700C6FEF93
:101AF00071E04AE050E00E94EF0E8FEF91E06FEB53
:101B000070E00E94DD0E8FEF91E00E942F028DE0C9
:101B10000E941D0268960FB6F894DEBF0FBECDBFBF
:101B2000CF91DF910895AA1BBB1B51E107C0AA1FEB
:101B3000BB1FA617B70710F0A61BB70B881F991F6E
:101B40005A95A9F780959095BC01CD01089597FB12
:101B5000092E07260AD077FD04D0E5DF06D0002045
:101B60001AF4709561957F4F0895F6F790958195D9
:101B70009F4F0895CF93DF93BC018230910510F4FD
:101B800062E070E0A0914602B0914702ED01E0E012
:101B9000F0E040E050E021C08881998186179707E6
:101BA00069F48A819B81309719F09383828304C002
:101BB0009093470280934602FE0134C0681779076C
:101BC00038F44115510519F08417950708F4AC0154
:101BD000FE018A819B819C01E9012097E9F641156C
:101BE0005105A9F1CA01861B970B049708F4BA01A5
:101BF000E0E0F0E02AC08D919C9111978417950741
:101C0000F9F46417750781F412968D919C911397DE
:101C1000309719F09383828304C090934702809396
:101C20004602FD0132964FC0CA01861B970BFD018B
:101C3000E80FF91F6193719302978D939C9343C0B2
:101C4000FD01828193819C01D9011097A1F68091B9
:101C5000440290914502892B41F480916601909154
:101C6000670190934502809344024091680150912E
:101C700069014115510541F44DB75EB7809164018A
:101C800090916501481B590B209144023091450207
:101C900024173507B0F4CA01821B930B86179707E8
:101CA00080F0AB014E5F5F4F8417950750F0420FF5
:101CB000531F5093450240934402F901619371937D
:101CC00002C0E0E0F0E0CF01DF91CF910895CF9323
:101CD000DF93009709F450C0EC0122971B821A820F
:101CE000A0914602B0914702109709F140E050E000
:101CF000AC17BD0708F1BB83AA83FE012191319186
:101D0000E20FF31FAE17BF0779F48D919C911197E5
:101D1000280F391F2E5F3F4F3983288312968D91EC
:101D20009C9113979B838A834115510571F4D0933D
:101D30004702C093460220C012968D919C91139742
:101D4000AD01009711F0DC01D3CFFA01D383C28338
:101D500021913191E20FF31FCE17DF0769F48881DB
:101D60009981280F391F2E5F3F4FFA01318320835D
:101D70008A819B8193838283DF91CF910895FC01B7
:101D800088279927E89421912032E9F3293010F02F
:101D90002E30C8F32B3241F02D3239F4689404C050
:101DA0000E94100F820F911D219120532A30C0F301
:101DB0001EF4909581959F4F0895FB01DC010D90D5
:101DC0000020E9F7119701900D920020E1F70895A6
:101DD000FB01DC0101900D920020E1F70895FB0169
:101DE0009F01E8944230C4F04532B4F44A3029F4FB
:101DF00097FB1EF4909581959F4F642F77270E9443
:101E0000930D805D8A330CF0895D8193CB0100973F
:101E1000A1F716F45DE251931082C9010C942D0FC5
:101E20007AE0979F902D879F802D910D1124089522
:101E3000E199FECF9FBB8EBBE09A99278DB30895A1
:101E4000262FE199FECF9FBB8EBB2DBB0FB6F8941A
:101E5000E29AE19A0FBE01960895DC01FC01672F1A
:101E600071917723E1F7329704C07C916D93708371
:0E1E70006291AE17BF07C8F30895F894FFCF34
:101E7E00D0070743432056312E333120006672655A
:101E8E006552414D3D00417A4D61783D004B6F6D7D
:101E9E006D616E646F00733A09732C662C6C6F67FC
:101EAE002C636D2C68612C68732C6D6D0D007300A6
:101EBE000000660000006C6F6700636D00006861D3
:101ECE000000687300006D6D00004D6F643D0009E9
:101EDE000009616E000961757300756E67FC6C74A4
:101EEE006967000A0014002800C8000100486973E1
:101EFE00746F7279617573676162653A20000D7453
:101F0E0020696E20302C3173096C696E6B73097603
:101F1E006F726E65097265636874730953657276C4
:101F2E006F0946616872720D000D7420696E207320
:101F3E00096C696E6B7309766F726E650900726556
:101F4E00636874730900536572766F09466168722F
:101F5E000900416B6B7509004D6F64005365727615
:101F6E006F20282B2F2D29203A20004D61785765A0
:0A1F7E0072742000200048020000E9
:00000001FF
