:100000000C942A000C9447000C9447000C94470071
:100010000C946B010C9447000C9447000C9447001F
:100020000C9447000C9447000C9447000C94470034
:100030000C9447000C949D010C94C7010C9447004C
:100040000C9447000C9447000C9447000C94470014
:100050000C94470011241FBECFE5D8E0DEBFCDBF12
:1000600011E0A0E6B0E0E0E2FDE102C005900D92F3
:10007000A836B107D9F712E0A8E6B1E001C01D9299
:10008000AC33B107E1F70E9449000C948E0E0C943A
:1000900000001F930E94BF0488E593E06CED72E0BE
:1000A00040E752E00E94440B82E30E94BE0B80E0D6
:1000B00090E00E946F0B80E090E00E94FF0B0E9496
:1000C0008302882349F40E948E02882319F4109237
:1000D00088010BC081E007C00E948E02882311F4C2
:1000E00082E001C083E0809388010E949A02182F69
:1000F000813039F481E00E9471021092DA0110938C
:1001000087010E94A602882339F081E00E946B02D9
:1001100080E293E00E940D0B80E00E9459019093D1
:10012000E8018093E70181E00E9459019093F20178
:100130008093F10182E00E9459019093E401809341
:10014000E30187E00E9459019093E0018093DF0171
:100150008091E7019091E80166E470E00E94580AFE
:100160009093E2018093E1018091F1019091F2017D
:1001700066E470E00E94760A9093E6018093E501C0
:100180008091E3019091E40164E670E00E94940A9A
:1001900090931402809313028091680190916901F9
:1001A0008436910508F4B8CF109269011092680165
:1001B0008091D9009091DA0001969093DA008093B3
:1001C000D9000E943503809188018230E1F08330AC
:1001D0002CF4882341F08130A1F50CC08330E1F08C
:1001E000893079F522C080E00E947D0280E00E9483
:1001F00077022EC080E00E947D0281E00E9477029B
:100200000E94150B25C081E00E947D0280E00E94C3
:1002100077020E94560A1CC081E00E947D0281E0A4
:100220000E9477020E94570A13C084E60E94D602F9
:1002300084E660E00E94E80280E090E00E94FF0B0C
:1002400007C08EE10E94D6028EE161E00E94E802C2
:100250000E9400038091DA018E3154F080E090E03A
:100260000E946F0B80E090E00E94FF0B10928801CB
:100270008091D9009091DA00885E9D4F08F44CCFB0
:100280001092DA001092D90047CF1DBC1CBC87EE3B
:100290009BE197BD86BD8FB5806A8FBD8EB58261AB
:1002A0008EBD08951ABA1BBA80EC87B985E886B965
:1002B000089597B18770987F892B87B980E0369A27
:1002C0003699FECF24B135B18F5F8430C1F724B1A8
:1002D00035B1C90108951F920F920FB60F921124E4
:1002E0008F939F93809168019091690101969093FB
:1002F0006901809368019F918F910F900FBE0F90BD
:100300001F90189514BC86E683BD85B58A6185BDAE
:1003100089B7806889BF08951DBC1CBC909160009E
:100320008091610087BD96BD1BBC1ABC8FB5806FE4
:100330008FBD8EB581618EBD08951F920F920FB64D
:100340000F9211242F938F939F93EF93FF939BB161
:100350002CB1E091CD01EF5FEF718091CE01E817F4
:1003600011F482E008C0892F8871E093CD01F0E09C
:10037000E555FE4F20838093CF01FF91EF919F9130
:100380008F912F910F900FBE0F901F9018951F9275
:100390000F920FB60F9211248F939F93EF93FF93B9
:1003A0009091CB018091CC01981761F0E091CC0144
:1003B000EF5FEF71E093CC01F0E0E557FE4F8081F5
:1003C0008CB901C05598FF91EF919F918F910F903B
:1003D0000FBE0F901F9018951092CB011092CC0178
:1003E0001092CD011092CE0197FF02C082E08BB92E
:1003F00010BC83E389B988E98AB986E880BD08958D
:100400009091CD018091CE01981719F420E031E050
:1004100012C0E091CE01EF5FEF71E093CE01F0E00A
:10042000E555FE4F30812091CF01922F80E0AC0145
:10043000430F511D9A01C9010895282F9091CB01B6
:100440009F5F9F718091CC019817E1F3E92FF0E055
:10045000E557FE4F20839093CB01559A0895CF9393
:10046000DF93EC0103C021960E941D02888188233E
:10047000D1F7DF91CF910895CF93DF93EC0102C0C4
:100480000E941D02FE01219684918823C9F7DF9105
:10049000CF91089540E050E060E27EE421E030E05A
:1004A000FB013197F1F72F5F3F4F25363105C1F73B
:1004B0004F5F5F4F481759078CF3089520E030E0F5
:1004C00040ED57E0FA013197F1F72F5F3F4F2817C2
:1004D0003907C4F30895882311F4C1980895C19A87
:1004E0000895882311F4C2980895C29A0895882324
:1004F00011F4AA980895AA9A0895882311F4AB9844
:100500000895AB9A089583B390E080959095807894
:100510009070880F892F881F990B089583B390E0FE
:10052000809590958074907036E0959587953A9572
:10053000E1F7089583B390E0809590958072907074
:1005400045E0959587954A95E1F7089583B390E046
:10055000809590958071907054E0959587955A9507
:10056000E1F70895282F8091D9009091DA00622F49
:1005700070E00E94E40C269530E02817390710F44B
:10058000C19A0895C1980895282F8091D90090911B
:10059000DA00622F70E00E94E40C269530E0281704
:1005A000390710F4C29A0895C2980895282F8091AF
:1005B000D9009091DA00622F70E00E94E40C269539
:1005C00030E02817390710F4AA9A0895AA980895D8
:1005D000282F462F8091D9009091DA00622F70E089
:1005E0000E94E40C269530E02817390718F44423BC
:1005F00019F404C0442311F4AB980895AB9A0895FC
:100600000E94F00880918301813021F08091850162
:10061000813011F40E9402078091D9009091DA0094
:1006200064E670E00E94E40C892B21F410926D01C5
:1006300010926C01209168013091690180916C01E8
:1006400090916D018217930720F430936D012093F0
:100650006C0180916A0190916B018217930720F4DD
:1006600030936B0120936A0108958F929F92AF920D
:10067000BF92CF92DF92FF920F931F93CF93DF939E
:100680002091E7013091E8018091D0019091D10152
:10069000280F391F3093D1012093D001E091F1014F
:1006A000F091F2018091D2019091D301E80FF91FEE
:1006B000F093D301E093D201C090E301D090E40124
:1006C0008091D4019091D501C80ED91ED092D50148
:1006D000C092D401AAB4BBB48091D6019091D70145
:1006E000A80EB91EB092D701A092D60188B499B4D1
:1006F0008091D8019091D901880E991E9092D901CC
:100700008092D8018091D9009091DA006AE070E07F
:100710000E94E40CEC01009709F063C0C9016AE093
:1007200070E00E94E40C062FF72E6093780170931E
:100730007901CF016AE070E00E94E40CF62F172FD8
:1007400060937A0170937B01C6016AE070E00E94B9
:10075000E40C462FE72F60937C0170937D01C50167
:100760006AE070E00E94E40C9B0160937E0130938C
:100770007F01C4016AE070E00E94E40C6093800194
:100780007093810100933202F0923302F0933602AB
:100790001093370240933002E093310220932E02EF
:1007A00030932F0260933402709335021092D1017E
:1007B0001092D0011092D3011092D2011092D50163
:1007C0001092D4011092D7011092D6011092D90143
:1007D0001092D80180918701813019F482E08093D2
:1007E00087019091DA019E310CF0BDC080918701A4
:1007F000823008F4B8C0C430D10509F455C0C53002
:10080000D10568F4C130D10561F1C130D105F0F0F6
:10081000C230D10599F1239709F08EC03AC0C73094
:10082000D10509F462C0C830D10540F4C530D10506
:1008300009F445C0269709F07FC04CC0C830D105E7
:1008400009F45EC0299709F077C065C0892F992700
:1008500087FD9095880F991F8050904060913202DB
:100860000AC0892F992787FD9095880F991F8F5F60
:100870009F4F609133020E94710E5EC0892F9927AD
:1008800087FD9095880F991F845C9F4F6091360279
:10089000F2CF892F992787FD9095880F991F835C48
:1008A0009F4F60913702E7CF892F992787FD909559
:1008B000880F991F88589F4F60913002DCCF892F95
:1008C000992787FD9095880F991F87589F4F6091B2
:1008D0003102D1CF892F992787FD9095880F991FD5
:1008E0008C549F4F60912E02C6CF892F992787FD88
:1008F0009095880F991F8B549F4F60912F02BBCF0B
:10090000892F992787FD9095880F991F80519F4FB8
:1009100060913402B0CF892F992787FD9095880F79
:10092000991F8F509F4F609135020E94710E8091E8
:10093000DA018F5F8093DA018091DA018E3199F4C8
:1009400080916A0190916B01682F809310029093BF
:1009500011028CE291E00E94710E8DE291E06091B3
:1009600011020E94710EDF91CF911F910F91FF90A4
:10097000DF90CF90BF90AF909F908F900895A19AF5
:1009800081B3806781BB0E9445010E94520180E8CB
:1009900095E20E94EC010E94820178948CEB92E037
:1009A00099BD88BD88EF92E09BBD8ABD8DE00E9415
:1009B0001D0283E690E00E942F028DE00E941D023E
:1009C00087B3866087BB84B38C6084BB84B38F702D
:1009D00084BB85B3806F85BB0895481759071CF405
:1009E00020E030E009C090E0641775070CF491E056
:1009F00081E09827292F30E0C9010895FC0120915A
:100A0000DD013091DE018217930711F460E02BC005
:100A10004091EE015091EF018417950711F46AE0BF
:100A200022C080910C0290910D02E817F90711F491
:100A300066EF19C02E173F0754F4821B930B66EF25
:100A40007FEF0E94F80CCF01821B930B0AC0C901F3
:100A5000841B950B6AE070E00E94F80CC9018E1BA4
:100A60009F0B0E94F80C862F089522E08C3B920782
:100A700011F460E012C023E0883E920711F464E6AE
:100A80000CC021E08039920711F46CE906C08C5B40
:100A9000924063E070E00E94F80C862F08952F9238
:100AA0003F924F925F926F927F928F929F92AF92FE
:100AB000BF92CF92DF92EF92FF920F931F93CF934B
:100AC000DF938DE00E941D028BED90E00E942F02CB
:100AD0008FEB90E00E942F0286E790E00E942F02A9
:100AE0008CE291E00E94690E809310028DE291E009
:100AF0000E94690E80931102809110029091110260
:100B000063EF71E04AE050E00E94400E83EF91E015
:100B10000E942F028DE00E941D028CEE90E00E9448
:100B20002F028DE00E941D0220E0A22E20E0B22EB6
:100B300015010894211C311C98E7C92E90E0D92E8C
:100B400026010894411C511C8CE3E82E80E0F82E0D
:100B500037010894611C711C88249924C0E0D0E0FE
:100B60002AC1C40163EF71E04AE050E00E94400EE8
:100B700083EF91E06FEB70E00E942E0E83EF91E027
:100B80000E942F0280918401882309F04BC0C50187
:100B90000E94690E80931002C1010E94690E809329
:100BA0001102809110029091110263EF71E04AE00E
:100BB00050E00E94400E83EF91E06FEB70E00E94E6
:100BC0002E0E83EF91E00E942F02C6010E94690E53
:100BD00080931002C2010E94690E809311028091DD
:100BE00010029091110263EF71E04AE050E00E9420
:100BF000400E83EF91E06FEB70E00E942E0E83EFCA
:100C000091E00E942F02C7010E94690E809310029A
:100C1000C3010E94690E809311028091100290918D
:100C2000110253C0C5010E94690E80931002C101D8
:100C30000E94690E8093110280911002909111021E
:100C400066E40E94B20A63EF71E04AE050E00E945D
:100C5000400E83EF91E06FEB70E00E942E0E83EF69
:100C600091E00E942F02C6010E94690E809310023B
:100C7000C2010E94690E809311028091100290912E
:100C8000110264E60E94B20A63EF71E04AE050E0AC
:100C90000E94400E83EF91E06FEB70E00E942E0EF9
:100CA00083EF91E00E942F02C7010E94690E80939A
:100CB0001002C3010E94690E8093110280911002FC
:100CC0009091110266E40E94B20A63EF71E04AE07B
:100CD00050E00E94400E83EF91E06FEB70E00E94C5
:100CE0002E0E83EF91E00E942F02CE018C549F4F75
:100CF0000E94690E809310028E010F5F1F4FC80182
:100D00008C549F4F0E94690E8093110280911002B3
:100D1000909111020E94FE04992787FD909563EF40
:100D200071E04AE050E00E94400E83EF91E06FEBEB
:100D300070E00E942E0E83EF91E00E942F02CE0100
:100D400080519F4F0E94690E80931002C80180510C
:100D50009F4F0E94690E8093110280911002909122
:100D600011020E943505992787FD909563EF71E088
:100D70004AE050E00E94400E83EF91E06FEB70E09C
:100D80000E942E0E83EF91E00E942F028DE00E94C0
:100D90001D020894811C911C229682E090E0A80E0E
:100DA000B91E280E391EC80ED91E480E591EE80E4F
:100DB000F91E680E791E8091DA01992787FD9095BA
:100DC000881699060CF4CDCE8DE00E941D0210927B
:100DD00069011092680110926B0110926A01DF9113
:100DE000CF911F910F91FF90EF90DF90CF90BF9028
:100DF000AF909F908F907F906F905F904F903F90BB
:100E00002F90089580918501813039F40E944F051B
:100E1000109285011092830108958091D9009091DC
:100E2000DA0068EE73E00E94E40C81319105D1F0A4
:100E30008231910530F48730910561F00997F1F422
:100E40000CC089339105A1F081369105A1F04B9733
:100E5000A9F40BC087E191E002C08CE291E00E940E
:100E60002F020CC084E391E0FACF80E491E0F7CF49
:100E700086E491E0F4CF8DE00E941D02E091D9005C
:100E8000F091DA00CF016AE070E00E94E40C833058
:100E9000910579F18430910538F48130910559F04C
:100EA000029709F052C016C08430910589F1059768
:100EB00009F04BC03CC080916E0190916F01209170
:100EC000780130917901820F931F90936F01809385
:100ED0006E013BC0809170019091710120917A0167
:100EE00030917B01820F931F909371018093700169
:100EF0002CC0809172019091730120917C013091FE
:100F00007D01820F931F90937301809372011DC026
:100F1000809174019091750120917E0130917F0143
:100F2000820F931F90937501809374010EC080917E
:100F30007601909177012091800130918101820F9B
:100F4000931F9093770180937601CF0164E670E060
:100F50000E94E40C892B09F021C18091860188232D
:100F600009F41CC180916E0190916F0165E070E001
:100F70000E94E40C9B0160936E0130936F0180919D
:100F800070019091710165E070E00E94E40C709333
:100F9000710160937001809172019091730165E01D
:100FA00070E00E94E40C7093730160937201809171
:100FB00074019091750165E070E00E94E40C7093FB
:100FC000750160937401809176019091770165E0DD
:100FD00070E00E94E40C7093770160937601809139
:100FE00084018130F1F4C90166E40E94B20A909351
:100FF0006F0180936E01809170019091710166E4A0
:101000000E94B20A909371018093700180917201E5
:101010009091730164E60E94B20A909373018093E9
:1010200072018091D9009091DA0064E670E00E942C
:10103000E40CCB0163EF71E04AE050E00E94400E07
:1010400083EF91E06FEB70E00E942E0E83EF91E052
:101050000E942F0280916E0190916F0163EF71E009
:101060004AE050E00E94400E83EF91E06FEB70E0A9
:101070000E942E0E83EF91E00E942F028091720158
:101080009091730163EF71E04AE050E00E94400EDE
:1010900083EF91E06FEB70E00E942E0E83EF91E002
:1010A0000E942F02809170019091710163EF71E0B5
:1010B0004AE050E00E94400E83EF91E06FEB70E059
:1010C0000E942E0E83EF91E00E942F028091740106
:1010D000909175010E94FE04992787FD909563EF1A
:1010E00071E04AE050E00E94400E83EF91E06FEB28
:1010F00070E00E942E0E83EF91E00E942F028091FB
:101100007601909177010E943505992787FD90958A
:1011100063EF71E04AE050E00E94400E83EF91E0FF
:101120006FEB70E00E942E0E83EF91E00E942F0281
:101130008091DF019091E00163EF71E04AE050E0BF
:101140000E94400E83EF91E06FEB70E00E942E0E44
:1011500083EF91E00E942F0280918801992787FDFB
:10116000909563EF71E04AE050E00E94400E83EFFB
:1011700091E06FEB70E00E942E0E83EF91E00E94F1
:101180002F028091D9009091DA0064E670E00E940D
:10119000E40C892B19F48DE00E941D028091D90086
:1011A0009091DA0062E370E00E94E40C892BB9F4BC
:1011B00010926F0110926E011092710110927001E5
:1011C00010927301109272011092750110927401C5
:1011D000109277011092760181E080938601089544
:1011E000CF93DF930E9400029C019093EA018093C9
:1011F000E901982F2093120281E02030380751F046
:1012000080918201E82FF0E0EB5EFD4F20838F5F3D
:101210008093820180918201893110F010928201C5
:10122000903209F5E0918201E130D9F0F0E0EC5E16
:10123000FD4F10828DE00E941D028DE790E00E941C
:101240002F0280E20E941D0280E20E941D0285E1C1
:1012500092E00E942F0281E090E090938A018093B7
:101260008901109282018091890190918A010197F0
:1012700009F019C18FEF8093F00180916200682F0F
:10128000772767FD709520E030E0C0E0D0E04FEFB9
:1012900011C021969C91FE01EB5EFD4F8081981755
:1012A00021F411969923A9F702C0992309F4422F3A
:1012B0002F5F3F4F2617370764F44F3F51F4D90192
:1012C000AA0FBB1FAA0FBB1FA256BF4FC0E0D0E0A2
:1012D000E1CF4093F0018091F001833009F47FC0A9
:1012E00084303CF48130B9F08230ECF4882359F03A
:1012F000C5C0853009F48DC085300CF47BC08630C4
:1013000009F0BCC099C0CE018B5E9D4F0E94100EAB
:101310000E946F0BC1C0CE018B5E9D4F0E94100ECC
:101320000E94FF0BB9C0809183018130D1F51092EA
:10133000830185EC90E00E942F028FEB90E00E94E9
:101340002F028DE690E00E942F020E94C10B63EFF6
:1013500071E04AE050E00E94400E83EF91E00E946D
:101360002F028FEB90E00E942F0286E790E00E9410
:101370002F0280916A0190916B0163EF71E04AE066
:1013800050E00E94400E83EF91E00E942F028DE01A
:101390000E941D028DE790E00E942F0286E890E0F7
:1013A00079C081E0809383011092860181EC90E006
:1013B0000E942F028FEB90E00E942F0286E790E0C0
:1013C0000E942F0280916A0190916B0163EF71E09E
:1013D0004AE050E00E94400E83EF91E05BC08091B4
:1013E0008401813019F4109284010AC081E0809355
:1013F00084010CC080918501813029F4109285010F
:1014000085EC90E047C081E08093850181EC90E01D
:1014100041C01092820181EC90E00E942F028DE089
:101420000E941D0210926B0110926A011092DA0163
:1014300081E08093870133C0CB5EDD4F888180538C
:101440008A30C8F48093880180E00E94710283EFA3
:1014500091E06FEB70E00E94390E83EF91E00E9403
:101460002F028AEB90E00E942F0280918801805D1C
:101470000E941D0211C08DE790E008C083EF91E04B
:101480006FEB70E00E94390E83EF91E00E942F0213
:101490008AEC90E00E942F028DE00E941D021092C3
:1014A0008A0110928901DF91CF91089508950895DE
:1014B0009C01462F8436910510F424E630E08EE638
:1014C00099E5B9010E94E40C635E7F4F842F90E0A0
:1014D0009C01629FC001639F900D729F900D11242B
:1014E00064E670E00E94F80CCB0108959C01462F41
:1014F0008436910510F424E630E086E99EE5B901D2
:101500000E94E40C69507040842F90E09C01629F1F
:10151000C001639F900D729F900D112464E670E0EE
:101520000E94F80CCB0108959C01462F843691054A
:1015300010F424E630E086E89BE5B9010E94E40C53
:101540006A5F7F4F842F90E09C01629FC001639F80
:10155000900D729F900D112464E670E00E94F80CCB
:10156000CB0108959C01462F8436910510F424E6A2
:1015700030E086E89BE5B9010E94E40C6A5F7F4F8A
:10158000842F90E09C01629FC001639F900D729F29
:10159000900D112464E670E00E94F80CCB010895D0
:1015A0000895CF93DF930E948302813039F5C1E023
:1015B000D0E081E00E946B0281E00E94710281E034
:1015C0000E94770281E00E947D0284E690E00E9402
:1015D0005E0280E00E946B0280E00E94710280E067
:1015E0000E94770280E00E947D0284E690E00E94E3
:1015F0005E022196CB30D105E1F60CC080E00E945E
:101600006B0280E00E94710280E00E94770280E01D
:101610000E947D02DF91CF91089587E00E945901D9
:101620009093E0018093DF01089584E190E00E94AF
:10163000FF0B80911302909114028E31910518F1E5
:1016400083389105C0F084E190E00E94FF0B809107
:10165000E5019091E6018F31910540F0CC9718F4A7
:1016600080E090E005C086E090E002C088EF9FEF48
:101670000E946F0B089584E190E00E94FF0B86EFBB
:101680009FEF0E946F0B089524E08D34920710F0B5
:101690008EEE92E090930D0280930C0281E0443F25
:1016A000580728F05093EF014093EE0106C08AE8F6
:1016B00092E09093EF018093EE01CB01845F914023
:1016C0008855924028F47093DE016093DD010895FF
:1016D0008CEB92E09093DE018093DD0108959C01F4
:1016E000009729F48091DD019091DE0134C08A30A9
:1016F00091052CF08091EE019091EF012CC04FEFFD
:10170000873F94072CF480910C0290910D0223C026
:10171000E091DD01F091DE01181619064CF480917C
:10172000EE019091EF01AF01481B590BCA0106C0B1
:1017300080910C0290910D028E1B9F0B66EF7FEF44
:101740000E94F80C629FC001639F900D729F900DE4
:1017500011248E0F9F1F9093EA018093E90120913D
:10176000E9013091EA01C901845F914089559240B5
:1017700010F0AA9A08953BBD2ABD08958093EB010D
:101780000895DF93CF9300D0CDB7DEB780913802B4
:1017900090913902009711F48CE392E0880F991F21
:1017A00044275527481B590B9E012F5F3F4F240F9D
:1017B000351FC9010F900F90CF91DF9108950F93BE
:1017C0001F93182F092F88B599B58C5B924080F034
:1017D00088E592E099BD88BD84E690E00E945E02B3
:1017E0008CEB92E099BD88BD84E690E00E945E0299
:1017F000812F902F99BD88BD1F910F9108959C0155
:1018000097FD15C08091EB01992787FD9095821770
:10181000930754F0C901880F991F820F931F8454B6
:101820009D4F99BD88BD089521153105A1F4809182
:10183000EB01992787FD9095909581959F4F2817EB
:1018400039074CF0C901880F991F820F931F8454E8
:101850009D4F0E94DF0B0895DF93CF93CDB7DEB786
:1018600068970FB6F894DEBF0FBECDBFDE011A96A3
:10187000EAE4F1E08FE001900D928150E1F7DE01A2
:101880001196E9E5F1E089E001900D928150E1F7D0
:101890000E9400028093E9019093EA018093120272
:1018A0008091890190918A01892BF9F4CE010A96E1
:1018B0000E942F028AB59BB563EF71E04AE050E0C9
:1018C0000E94400E83EF91E06FEB70E00E942E0EBD
:1018D00083EF91E00E942F028DE00E941D0281E0C3
:1018E00090E090938A0180938901809112028B325B
:1018F00021F08D3209F05FC012C08AB59BB5855FBB
:10190000914030F08AB59BB504979BBD8ABD07C056
:101910008DE00E941D02CE0101960E942F0280914F
:1019200012028D3291F48AB59BB58C54944030F4F8
:101930008AB59BB504969BBD8ABD07C08DE00E9409
:101940001D02CE0101960E942F02CE010A960E942E
:101950002F028AB59BB563EF71E04AE050E00E9428
:10196000400E83EF91E06FEB70E00E942E0E83EF4C
:1019700091E00E942F028DE00E941D028FEB90E00B
:101980000E942F028DE690E00E942F020E94C10B60
:1019900063EF71E04AE050E00E94400E83EF91E077
:1019A0006FEB70E00E942E0E83EF91E00E942F02F9
:1019B0008DE00E941D0268960FB6F894DEBF0FBE40
:1019C000CDBFCF91DF910895AA1BBB1B51E107C08A
:1019D000AA1FBB1FA617B70710F0A61BB70B881FBF
:1019E000991F5A95A9F780959095BC01CD0108954E
:1019F00097FB092E07260AD077FD04D0E5DF06D035
:101A000000201AF4709561957F4F0895F6F7909530
:101A100081959F4F0895CF93DF93BC01823091054C
:101A200010F462E070E0A0913A02B0913B02ED0147
:101A3000E0E0F0E040E050E021C088819981861725
:101A4000970769F48A819B81309719F09383828389
:101A500004C090933B0280933A02FE0134C06817A1
:101A6000790738F44115510519F08417950708F4E2
:101A7000AC01FE018A819B819C01E9012097E9F676
:101A800041155105A9F1CA01861B970B049708F46B
:101A9000BA01E0E0F0E02AC08D919C911197841783
:101AA0009507F9F46417750781F412968D919C914E
:101AB0001397309719F09383828304C090933B026D
:101AC00080933A02FD0132964FC0CA01861B970BE4
:101AD000FD01E80FF91F6193719302978D939C9319
:101AE00043C0FD01828193819C01D9011097A1F629
:101AF0008091380290913902892B41F480916401E0
:101B0000909165019093390280933802409166016B
:101B1000509167014115510541F44DB75EB7809171
:101B2000620190916301481B590B2091380230915A
:101B3000390224173507B0F4CA01821B930B8617AC
:101B4000970780F0AB014E5F5F4F8417950750F009
:101B5000420F531F5093390240933802F9016193A9
:101B6000719302C0E0E0F0E0CF01DF91CF910895E2
:101B7000CF93DF93009709F450C0EC0122971B82AA
:101B80001A82A0913A02B0913B02109709F140E00D
:101B900050E0AC17BD0708F1BB83AA83FE01219179
:101BA0003191E20FF31FAE17BF0779F48D919C912D
:101BB0001197280F391F2E5F3F4F398328831296C4
:101BC0008D919C9113979B838A834115510571F4E4
:101BD000D0933B02C0933A0220C012968D919C9103
:101BE0001397AD01009711F0DC01D3CFFA01D38335
:101BF000C28321913191E20FF31FCE17DF0769F401
:101C000088819981280F391F2E5F3F4FFA01318358
:101C100020838A819B8193838283DF91CF91089572
:101C2000FC0188279927E89421912032E9F3293093
:101C300010F02E30C8F32B3241F02D3239F4689475
:101C400004C00E94610E820F911D219120532A3001
:101C5000C0F31EF4909581959F4F0895FB01DC0120
:101C60000D900020E9F7119701900D920020E1F707
:101C70000895FB01DC0101900D920020E1F7089529
:101C8000FB019F01E8944230C4F04532B4F44A307D
:101C900029F497FB1EF4909581959F4F642F772729
:101CA0000E94E40C805D8A330CF0895D8193CB0146
:101CB0000097A1F716F45DE251931082C9010C94CC
:101CC0007E0E7AE0979F902D879F802D910D112495
:101CD0000895E199FECF9FBB8EBBE09A99278DB303
:101CE0000895262FE199FECF9FBB8EBB2DBB0FB66B
:101CF000F894E29AE19A0FBE01960895DC01FC0186
:101D0000672F71917723E1F7329704C07C916D932F
:101D100070836291AE17BF07C8F30895F894FFCFA0
:101D2000D0070743432056312E33312000667265B9
:101D30006552414D3D00417A4D61783D004B6F6DDC
:101D40006D616E646F00733A09732C662C6C6F675B
:101D50002C636D2C68612C68732C6D6D0D00730005
:101D60000000660000006C6F6700636D0000686132
:101D70000000687300006D6D00004D6F643D000948
:101D80000009616E000961757300756E67FC6C7403
:101D90006967004300640023000100486973746FA1
:101DA0007279617573676162653A20000D7420690C
:101DB0006E20302C3173096C696E6B7309766F720B
:101DC0006E650972656368747309536572766F098D
:101DD00046616872720D000D7420696E2073096C83
:101DE000696E6B7309766F726E6509007265636860
:101DF00074730900536572766F0946616872090051
:101E0000416B6B7509004D6F6400536572766F20EE
:101E1000282B2F2D29203A20004D617857657274A8
:081E2000200020003C0200003C
:00000001FF
